{
  "_format": "hh-sol-artifact-1",
  "contractName": "DoNation",
  "sourceName": "src/contracts/DoNation.sol",
  "abi": [
    {
      "inputs": [
        {
          "internalType": "uint256",
          "name": "_missionTax",
          "type": "uint256"
        }
      ],
      "stateMutability": "nonpayable",
      "type": "constructor"
    },
    {
      "anonymous": false,
      "inputs": [
        {
          "indexed": false,
          "internalType": "uint256",
          "name": "id",
          "type": "uint256"
        },
        {
          "indexed": false,
          "internalType": "string",
          "name": "actionType",
          "type": "string"
        },
        {
          "indexed": true,
          "internalType": "address",
          "name": "executor",
          "type": "address"
        },
        {
          "indexed": false,
          "internalType": "uint256",
          "name": "timestamp",
          "type": "uint256"
        }
      ],
      "name": "Action",
      "type": "event"
    },
    {
      "inputs": [],
      "name": "balance",
      "outputs": [
        {
          "internalType": "uint256",
          "name": "",
          "type": "uint256"
        }
      ],
      "stateMutability": "view",
      "type": "function"
    },
    {
      "inputs": [
        {
          "internalType": "uint256",
          "name": "_taxPct",
          "type": "uint256"
        }
      ],
      "name": "changeTax",
      "outputs": [],
      "stateMutability": "nonpayable",
      "type": "function"
    },
    {
      "inputs": [
        {
          "internalType": "string",
          "name": "title",
          "type": "string"
        },
        {
          "internalType": "string",
          "name": "description",
          "type": "string"
        },
        {
          "internalType": "string",
          "name": "imageURL",
          "type": "string"
        },
        {
          "internalType": "uint256",
          "name": "cost",
          "type": "uint256"
        },
        {
          "internalType": "uint256",
          "name": "expiresAt",
          "type": "uint256"
        }
      ],
      "name": "createMission",
      "outputs": [
        {
          "internalType": "bool",
          "name": "",
          "type": "bool"
        }
      ],
      "stateMutability": "nonpayable",
      "type": "function"
    },
    {
      "inputs": [
        {
          "internalType": "uint256",
          "name": "id",
          "type": "uint256"
        }
      ],
      "name": "deleteMission",
      "outputs": [
        {
          "internalType": "bool",
          "name": "",
          "type": "bool"
        }
      ],
      "stateMutability": "nonpayable",
      "type": "function"
    },
    {
      "inputs": [
        {
          "internalType": "uint256",
          "name": "id",
          "type": "uint256"
        }
      ],
      "name": "getMission",
      "outputs": [
        {
          "components": [
            {
              "internalType": "uint256",
              "name": "id",
              "type": "uint256"
            },
            {
              "internalType": "address",
              "name": "owner",
              "type": "address"
            },
            {
              "internalType": "string",
              "name": "title",
              "type": "string"
            },
            {
              "internalType": "string",
              "name": "description",
              "type": "string"
            },
            {
              "internalType": "string",
              "name": "imageURL",
              "type": "string"
            },
            {
              "internalType": "uint256",
              "name": "cost",
              "type": "uint256"
            },
            {
              "internalType": "uint256",
              "name": "raised",
              "type": "uint256"
            },
            {
              "internalType": "uint256",
              "name": "timestamp",
              "type": "uint256"
            },
            {
              "internalType": "uint256",
              "name": "expiresAt",
              "type": "uint256"
            },
            {
              "internalType": "uint256",
              "name": "supporters",
              "type": "uint256"
            },
            {
              "internalType": "enum DoNation.statusEnum",
              "name": "status",
              "type": "uint8"
            }
          ],
          "internalType": "struct DoNation.missionStruct",
          "name": "",
          "type": "tuple"
        }
      ],
      "stateMutability": "view",
      "type": "function"
    },
    {
      "inputs": [],
      "name": "getMissions",
      "outputs": [
        {
          "components": [
            {
              "internalType": "uint256",
              "name": "id",
              "type": "uint256"
            },
            {
              "internalType": "address",
              "name": "owner",
              "type": "address"
            },
            {
              "internalType": "string",
              "name": "title",
              "type": "string"
            },
            {
              "internalType": "string",
              "name": "description",
              "type": "string"
            },
            {
              "internalType": "string",
              "name": "imageURL",
              "type": "string"
            },
            {
              "internalType": "uint256",
              "name": "cost",
              "type": "uint256"
            },
            {
              "internalType": "uint256",
              "name": "raised",
              "type": "uint256"
            },
            {
              "internalType": "uint256",
              "name": "timestamp",
              "type": "uint256"
            },
            {
              "internalType": "uint256",
              "name": "expiresAt",
              "type": "uint256"
            },
            {
              "internalType": "uint256",
              "name": "supporters",
              "type": "uint256"
            },
            {
              "internalType": "enum DoNation.statusEnum",
              "name": "status",
              "type": "uint8"
            }
          ],
          "internalType": "struct DoNation.missionStruct[]",
          "name": "",
          "type": "tuple[]"
        }
      ],
      "stateMutability": "view",
      "type": "function"
    },
    {
      "inputs": [
        {
          "internalType": "uint256",
          "name": "id",
          "type": "uint256"
        }
      ],
      "name": "getSupporters",
      "outputs": [
        {
          "components": [
            {
              "internalType": "address",
              "name": "owner",
              "type": "address"
            },
            {
              "internalType": "uint256",
              "name": "contribution",
              "type": "uint256"
            },
            {
              "internalType": "uint256",
              "name": "timestamp",
              "type": "uint256"
            },
            {
              "internalType": "bool",
              "name": "refunded",
              "type": "bool"
            }
          ],
          "internalType": "struct DoNation.supporterStruct[]",
          "name": "",
          "type": "tuple[]"
        }
      ],
      "stateMutability": "view",
      "type": "function"
    },
    {
      "inputs": [],
      "name": "missionCount",
      "outputs": [
        {
          "internalType": "uint256",
          "name": "",
          "type": "uint256"
        }
      ],
      "stateMutability": "view",
      "type": "function"
    },
    {
      "inputs": [
        {
          "internalType": "uint256",
          "name": "",
          "type": "uint256"
        }
      ],
      "name": "missionExist",
      "outputs": [
        {
          "internalType": "bool",
          "name": "",
          "type": "bool"
        }
      ],
      "stateMutability": "view",
      "type": "function"
    },
    {
      "inputs": [],
      "name": "missionTax",
      "outputs": [
        {
          "internalType": "uint256",
          "name": "",
          "type": "uint256"
        }
      ],
      "stateMutability": "view",
      "type": "function"
    },
    {
      "inputs": [],
      "name": "owner",
      "outputs": [
        {
          "internalType": "address",
          "name": "",
          "type": "address"
        }
      ],
      "stateMutability": "view",
      "type": "function"
    },
    {
      "inputs": [
        {
          "internalType": "uint256",
          "name": "id",
          "type": "uint256"
        }
      ],
      "name": "payOutMission",
      "outputs": [
        {
          "internalType": "bool",
          "name": "",
          "type": "bool"
        }
      ],
      "stateMutability": "nonpayable",
      "type": "function"
    },
    {
      "inputs": [
        {
          "internalType": "uint256",
          "name": "id",
          "type": "uint256"
        }
      ],
      "name": "requestRefund",
      "outputs": [
        {
          "internalType": "bool",
          "name": "",
          "type": "bool"
        }
      ],
      "stateMutability": "nonpayable",
      "type": "function"
    },
    {
      "inputs": [],
      "name": "stats",
      "outputs": [
        {
          "internalType": "uint256",
          "name": "totalMissions",
          "type": "uint256"
        },
        {
          "internalType": "uint256",
          "name": "totalSupporting",
          "type": "uint256"
        },
        {
          "internalType": "uint256",
          "name": "totalDonations",
          "type": "uint256"
        }
      ],
      "stateMutability": "view",
      "type": "function"
    },
    {
      "inputs": [
        {
          "internalType": "uint256",
          "name": "id",
          "type": "uint256"
        }
      ],
      "name": "supportMission",
      "outputs": [
        {
          "internalType": "bool",
          "name": "",
          "type": "bool"
        }
      ],
      "stateMutability": "payable",
      "type": "function"
    },
    {
      "inputs": [
        {
          "internalType": "uint256",
          "name": "id",
          "type": "uint256"
        },
        {
          "internalType": "string",
          "name": "title",
          "type": "string"
        },
        {
          "internalType": "string",
          "name": "description",
          "type": "string"
        },
        {
          "internalType": "string",
          "name": "imageURL",
          "type": "string"
        },
        {
          "internalType": "uint256",
          "name": "expiresAt",
          "type": "uint256"
        }
      ],
      "name": "updateMission",
      "outputs": [
        {
          "internalType": "bool",
          "name": "",
          "type": "bool"
        }
      ],
      "stateMutability": "nonpayable",
      "type": "function"
    }
  ],
  "bytecode": "0x608060405234801561001057600080fd5b5060405161227238038061227283398101604081905261002f91610049565b600080546001600160a01b03191633179055600155610062565b60006020828403121561005b57600080fd5b5051919050565b612201806100716000396000f3fe6080604052600436106100f35760003560e01c80639c5863e31161008a578063dfc19e7411610059578063dfc19e74146102cb578063eb2b94b5146102ed578063f77b58db1461031a578063ff9c08fa1461033a57600080fd5b80639c5863e31461023b578063a4b2409e1461025b578063b69ef8a81461027b578063d80528ae1461029157600080fd5b8063634fb230116100c6578063634fb230146101a057806380a272f0146101b3578063899d0e67146101e35780638da5cb5b1461020357600080fd5b8063282e92e4146100f85780633e45c8af1461012d5780634754af721461014f5780634f63829c14610173575b600080fd5b34801561010457600080fd5b50610118610113366004611d8e565b610350565b60405190151581526020015b60405180910390f35b34801561013957600080fd5b5061014d610148366004611d8e565b61044c565b005b34801561015b57600080fd5b5061016560015481565b604051908152602001610124565b34801561017f57600080fd5b5061019361018e366004611d8e565b6104a1565b6040516101249190611fd7565b6101186101ae366004611d8e565b610543565b3480156101bf57600080fd5b506101186101ce366004611d8e565b600a6020526000908152604090205460ff1681565b3480156101ef57600080fd5b506101186101fe366004611da7565b610948565b34801561020f57600080fd5b50600054610223906001600160a01b031681565b6040516001600160a01b039091168152602001610124565b34801561024757600080fd5b50610118610256366004611d8e565b610bbf565b34801561026757600080fd5b50610118610276366004611d8e565b610d3b565b34801561028757600080fd5b5061016560035481565b34801561029d57600080fd5b506004546005546006546102b092919083565b60408051938452602084019290925290820152606001610124565b3480156102d757600080fd5b506102e0610e32565b6040516101249190611f75565b3480156102f957600080fd5b5061030d610308366004611d8e565b6110cd565b6040516101249190612073565b34801561032657600080fd5b50610118610335366004611cf4565b6113ad565b34801561034657600080fd5b5061016560025481565b60006001600783815481106103675761036761217f565b60009182526020909120600a600b90920201015460ff16600481111561038f5761038f612169565b146103d85760405162461bcd60e51b8152602060048201526014602482015273135a5cdcda5bdb881b9bdd081054141493d5915160621b60448201526064015b60405180910390fd5b600782815481106103eb576103eb61217f565b60009182526020909120600b90910201600101546001600160a01b031633148061041f57506000546001600160a01b031633145b61043b5760405162461bcd60e51b81526004016103cf90612046565b61044482611811565b506001919050565b6000546001600160a01b0316331461049c5760405162461bcd60e51b81526020600482015260136024820152724f776e6572207265736572766564206f6e6c7960681b60448201526064016103cf565b600155565b606060096000838152602001908152602001600020805480602002602001604051908101604052809291908181526020016000905b82821015610538576000848152602090819020604080516080810182526004860290920180546001600160a01b03168352600180820154848601526002820154928401929092526003015460ff161515606083015290835290920191016104d6565b505050509050919050565b60008034116105945760405162461bcd60e51b815260206004820152601f60248201527f4574686572206d7573742062652067726561746572207468616e207a65726f0060448201526064016103cf565b6000828152600a602052604090205460ff166105e65760405162461bcd60e51b8152602060048201526011602482015270135a5cdcda5bdb881b9bdd08199bdd5b99607a1b60448201526064016103cf565b6000600783815481106105fb576105fb61217f565b60009182526020909120600a600b90920201015460ff16600481111561062357610623612169565b1461066b5760405162461bcd60e51b8152602060048201526018602482015277135a5cdcda5bdb881b9bc81b1bdb99d95c881bdc195b995960421b60448201526064016103cf565b600160046001016000828254610681919061208d565b90915550506006805434919060009061069b90849061208d565b9250508190555034600783815481106106b6576106b661217f565b90600052602060002090600b020160060160008282546106d6919061208d565b925050819055506001600783815481106106f2576106f261217f565b90600052602060002090600b02016009016000828254610712919061208d565b9091555050600082815260096020908152604080832081516080808201845233808352348387019081524284870181815260608087018b8152885460018082018b55998d529b8b902097516004909c0290970180546001600160a01b0319166001600160a01b03909c169b909b178b559251968a01969096559451600289015592516003909701805460ff1916971515979097179096558351888152948501829052600e918501919091526d141493d29150d508109050d2d15160921b90840152908201526000805160206121ac8339815191529060a00160405180910390a2600782815481106108055761080561217f565b90600052602060002090600b0201600501546007838154811061082a5761082a61217f565b90600052602060002090600b020160060154106108cd576001600783815481106108565761085661217f565b60009182526020909120600a600b9092020101805460ff1916600183600481111561088357610883612169565b02179055506007828154811061089b5761089b61217f565b90600052602060002090600b020160060154600360008282546108be919061208d565b90915550610444905082611811565b600782815481106108e0576108e061217f565b90600052602060002090600b02016008015442106104445760026007838154811061090d5761090d61217f565b60009182526020909120600a600b9092020101805460ff1916600183600481111561093a5761093a612169565b021790555061044482611988565b60006007868154811061095d5761095d61217f565b60009182526020909120600b90910201600101546001600160a01b031633146109985760405162461bcd60e51b81526004016103cf90612046565b60008551116109e15760405162461bcd60e51b81526020600482015260156024820152745469746c652063616e6e6f7420626520656d70747960581b60448201526064016103cf565b6000845111610a325760405162461bcd60e51b815260206004820152601b60248201527f4465736372697074696f6e2063616e6e6f7420626520656d707479000000000060448201526064016103cf565b6000835111610a7e5760405162461bcd60e51b8152602060048201526018602482015277496d61676555524c2063616e6e6f7420626520656d70747960401b60448201526064016103cf565b8460078781548110610a9257610a9261217f565b90600052602060002090600b02016002019080519060200190610ab6929190611b5b565b508360078781548110610acb57610acb61217f565b90600052602060002090600b02016003019080519060200190610aef929190611b5b565b508260078781548110610b0457610b0461217f565b90600052602060002090600b02016004019080519060200190610b28929190611b5b565b508160078781548110610b3d57610b3d61217f565b90600052602060002090600b020160080181905550336001600160a01b03166000805160206121ac8339815191528742604051610bab929190918252606060208301819052600f908301526e141493d29150d50815541110551151608a1b6080830152604082015260a00190565b60405180910390a250600195945050505050565b60008060078381548110610bd557610bd561217f565b60009182526020909120600a600b90920201015460ff166004811115610bfd57610bfd612169565b14610c455760405162461bcd60e51b8152602060048201526018602482015277135a5cdcda5bdb881b9bc81b1bdb99d95c881bdc195b995960421b60448201526064016103cf565b60078281548110610c5857610c5861217f565b60009182526020909120600b90910201600101546001600160a01b03163314610c935760405162461bcd60e51b81526004016103cf90612046565b600360078381548110610ca857610ca861217f565b60009182526020909120600a600b9092020101805460ff19166001836004811115610cd557610cd5612169565b0217905550610ce382611988565b60408051838152606060208201819052600f908201526e141493d29150d50811115311551151608a1b60808201524281830152905133916000805160206121ac833981519152919081900360a00190a2506001919050565b6000600260078381548110610d5257610d5261217f565b60009182526020909120600a600b90920201015460ff166004811115610d7a57610d7a612169565b141580610dc25750600360078381548110610d9757610d9761217f565b60009182526020909120600a600b90920201015460ff166004811115610dbf57610dbf612169565b14155b610e1d5760405162461bcd60e51b815260206004820152602660248201527f4d697373696f6e206e6f74206d61726b656420617320726576657274206f722060448201526564656c65746560d01b60648201526084016103cf565b60026007838154811061090d5761090d61217f565b60606007805480602002602001604051908101604052809291908181526020016000905b828210156110c45760008481526020908190206040805161016081018252600b86029092018054835260018101546001600160a01b03169383019390935260028301805492939291840191610eaa906120fd565b80601f0160208091040260200160405190810160405280929190818152602001828054610ed6906120fd565b8015610f235780601f10610ef857610100808354040283529160200191610f23565b820191906000526020600020905b815481529060010190602001808311610f0657829003601f168201915b50505050508152602001600382018054610f3c906120fd565b80601f0160208091040260200160405190810160405280929190818152602001828054610f68906120fd565b8015610fb55780601f10610f8a57610100808354040283529160200191610fb5565b820191906000526020600020905b815481529060010190602001808311610f9857829003601f168201915b50505050508152602001600482018054610fce906120fd565b80601f0160208091040260200160405190810160405280929190818152602001828054610ffa906120fd565b80156110475780601f1061101c57610100808354040283529160200191611047565b820191906000526020600020905b81548152906001019060200180831161102a57829003601f168201915b505050918352505060058201546020820152600682015460408201526007820154606082015260088201546080820152600982015460a0820152600a82015460c09091019060ff1660048111156110a0576110a0612169565b60048111156110b1576110b1612169565b8152505081526020019060010190610e56565b50505050905090565b6110d5611bdf565b6000828152600a602052604090205460ff166111275760405162461bcd60e51b8152602060048201526011602482015270135a5cdcda5bdb881b9bdd08199bdd5b99607a1b60448201526064016103cf565b6007828154811061113a5761113a61217f565b90600052602060002090600b020160405180610160016040529081600082015481526020016001820160009054906101000a90046001600160a01b03166001600160a01b03166001600160a01b0316815260200160028201805461119d906120fd565b80601f01602080910402602001604051908101604052809291908181526020018280546111c9906120fd565b80156112165780601f106111eb57610100808354040283529160200191611216565b820191906000526020600020905b8154815290600101906020018083116111f957829003601f168201915b5050505050815260200160038201805461122f906120fd565b80601f016020809104026020016040519081016040528092919081815260200182805461125b906120fd565b80156112a85780601f1061127d576101008083540402835291602001916112a8565b820191906000526020600020905b81548152906001019060200180831161128b57829003601f168201915b505050505081526020016004820180546112c1906120fd565b80601f01602080910402602001604051908101604052809291908181526020018280546112ed906120fd565b801561133a5780601f1061130f5761010080835404028352916020019161133a565b820191906000526020600020905b81548152906001019060200180831161131d57829003601f168201915b505050918352505060058201546020820152600682015460408201526007820154606082015260088201546080820152600982015460a0820152600a82015460c09091019060ff16600481111561139357611393612169565b60048111156113a4576113a4612169565b90525092915050565b6000808651116113f75760405162461bcd60e51b81526020600482015260156024820152745469746c652063616e6e6f7420626520656d70747960581b60448201526064016103cf565b60008551116114485760405162461bcd60e51b815260206004820152601b60248201527f4465736372697074696f6e2063616e6e6f7420626520656d707479000000000060448201526064016103cf565b60008451116114945760405162461bcd60e51b8152602060048201526018602482015277496d61676555524c2063616e6e6f7420626520656d70747960401b60448201526064016103cf565b600083116114da5760405162461bcd60e51b8152602060048201526013602482015272436f73742063616e6e6f74206265207a65726f60681b60448201526064016103cf565b6114e2611bdf565b600254815233602080830191825260408301898152606084018990526080840188905260a084018790524260e085015261010084018690526007805460018101825560009190915284517fa66cc928b5edb82af9bd49922954155ab7b0942694bea4ce44661d9a8736c688600b90920291820190815593517fa66cc928b5edb82af9bd49922954155ab7b0942694bea4ce44661d9a8736c689820180546001600160a01b0319166001600160a01b03909216919091179055905180518594936115cf937fa66cc928b5edb82af9bd49922954155ab7b0942694bea4ce44661d9a8736c68a01920190611b5b565b50606082015180516115eb916003840191602090910190611b5b565b5060808201518051611607916004840191602090910190611b5b565b5060a0820151600582015560c0820151600682015560e0820151600782015561010082015160088201556101208201516009820155610140820151600a8201805460ff1916600183600481111561166057611660612169565b021790555050600280546000908152600a602090815260408083208054600160ff1990911681179091553384526008835281842080548083018255908552938390208751600b909502019384558683015190840180546001600160a01b0319166001600160a01b03909216919091179055850151805186955092936116ed93908501929190910190611b5b565b5060608201518051611709916003840191602090910190611b5b565b5060808201518051611725916004840191602090910190611b5b565b5060a0820151600582015560c0820151600682015560e0820151600782015561010082015160088201556101208201516009820155610140820151600a8201805460ff1916600183600481111561177e5761177e612169565b0217905550505060016004600001600082825461179b919061208d565b90915550506002805433916000805160206121ac833981519152919060006117c283612138565b9091555060408051918252606060208301819052600f908301526e141493d29150d50810d49150551151608a1b6080830152429082015260a00160405180910390a25060019695505050505050565b6000600782815481106118265761182661217f565b90600052602060002090600b0201600601549050600060646001548361184c91906120c7565b61185691906120a5565b905060046007848154811061186d5761186d61217f565b60009182526020909120600a600b9092020101805460ff1916600183600481111561189a5761189a612169565b02179055506118e1600784815481106118b5576118b561217f565b600091825260209091206001600b9092020101546001600160a01b03166118dc83856120e6565b611af6565b6000546118f7906001600160a01b031682611af6565b6007838154811061190a5761190a61217f565b90600052602060002090600b0201600601546003600082825461192d91906120e6565b9091555050604080518481526060602082018190526010908201526f141493d29150d508141052510813d55560821b60808201524281830152905133916000805160206121ac833981519152919081900360a00190a2505050565b60005b600082815260096020526040902054811015611af25760008281526009602052604081208054839081106119c1576119c161217f565b6000918252602080832060049092029091015485835260099091526040822080546001600160a01b0390921693509084908110611a0057611a0061217f565b90600052602060002090600402016001015490506001600960008681526020019081526020016000208481548110611a3a57611a3a61217f565b906000526020600020906004020160030160006101000a81548160ff02191690831515021790555042600960008681526020019081526020016000208481548110611a8757611a8761217f565b906000526020600020906004020160020181905550611aa68282611af6565b600160046001016000828254611abc91906120e6565b909155505060068054829190600090611ad69084906120e6565b9250508190555050508080611aea90612138565b91505061198b565b5050565b6000826001600160a01b03168260405160006040518083038185875af1925050503d8060008114611b43576040519150601f19603f3d011682016040523d82523d6000602084013e611b48565b606091505b5050905080611b5657600080fd5b505050565b828054611b67906120fd565b90600052602060002090601f016020900481019282611b895760008555611bcf565b82601f10611ba257805160ff1916838001178555611bcf565b82800160010185558215611bcf579182015b82811115611bcf578251825591602001919060010190611bb4565b50611bdb929150611c52565b5090565b6040518061016001604052806000815260200160006001600160a01b03168152602001606081526020016060815260200160608152602001600081526020016000815260200160008152602001600081526020016000815260200160006004811115611c4d57611c4d612169565b905290565b5b80821115611bdb5760008155600101611c53565b600082601f830112611c7857600080fd5b813567ffffffffffffffff80821115611c9357611c93612195565b604051601f8301601f19908116603f01168101908282118183101715611cbb57611cbb612195565b81604052838152866020858801011115611cd457600080fd5b836020870160208301376000602085830101528094505050505092915050565b600080600080600060a08688031215611d0c57600080fd5b853567ffffffffffffffff80821115611d2457600080fd5b611d3089838a01611c67565b96506020880135915080821115611d4657600080fd5b611d5289838a01611c67565b95506040880135915080821115611d6857600080fd5b50611d7588828901611c67565b9598949750949560608101359550608001359392505050565b600060208284031215611da057600080fd5b5035919050565b600080600080600060a08688031215611dbf57600080fd5b85359450602086013567ffffffffffffffff80821115611dde57600080fd5b611dea89838a01611c67565b95506040880135915080821115611e0057600080fd5b611e0c89838a01611c67565b94506060880135915080821115611e2257600080fd5b50611e2f88828901611c67565b95989497509295608001359392505050565b60058110611e5f57634e487b7160e01b600052602160045260246000fd5b9052565b6000815180845260005b81811015611e8957602081850181015186830182015201611e6d565b81811115611e9b576000602083870101525b50601f01601f19169290920160200192915050565b6000610160825184526020830151611ed360208601826001600160a01b03169052565b506040830151816040860152611eeb82860182611e63565b91505060608301518482036060860152611f058282611e63565b91505060808301518482036080860152611f1f8282611e63565b91505060a083015160a085015260c083015160c085015260e083015160e085015261010080840151818601525061012080840151818601525061014080840151611f6b82870182611e41565b5090949350505050565b6000602080830181845280855180835260408601915060408160051b870101925083870160005b82811015611fca57603f19888603018452611fb8858351611eb0565b94509285019290850190600101611f9c565b5092979650505050505050565b602080825282518282018190526000919060409081850190868401855b8281101561203957815180516001600160a01b031685528681015187860152858101518686015260609081015115159085015260809093019290850190600101611ff4565b5091979650505050505050565b602080825260139082015272556e617574686f72697a656420456e7469747960681b604082015260600190565b6020815260006120866020830184611eb0565b9392505050565b600082198211156120a0576120a0612153565b500190565b6000826120c257634e487b7160e01b600052601260045260246000fd5b500490565b60008160001904831182151516156120e1576120e1612153565b500290565b6000828210156120f8576120f8612153565b500390565b600181811c9082168061211157607f821691505b6020821081141561213257634e487b7160e01b600052602260045260246000fd5b50919050565b600060001982141561214c5761214c612153565b5060010190565b634e487b7160e01b600052601160045260246000fd5b634e487b7160e01b600052602160045260246000fd5b634e487b7160e01b600052603260045260246000fd5b634e487b7160e01b600052604160045260246000fdfeaee8e5d3bbb2f71a951b5632cee20f7ac487b9f8ab4f66a236f7694b13af7c6aa2646970667358221220c9845149c981b761e23c4ba96d016c29ade5ef5c43af63dbf05b79bc85079bee64736f6c63430008070033",
  "linkReferences": {},
  "deployedLinkReferences": {}
}